{
  "_format": "hh-sol-artifact-1",
  "contractName": "Upload",
  "sourceName": "contracts/Upload.sol",
  "abi": [
    {
      "inputs": [],
      "stateMutability": "payable",
      "type": "constructor"
    },
    {
      "inputs": [
        {
          "internalType": "address",
          "name": "",
          "type": "address"
        },
        {
          "internalType": "uint256",
          "name": "",
          "type": "uint256"
        }
      ],
      "name": "accessList",
      "outputs": [
        {
          "internalType": "address",
          "name": "user",
          "type": "address"
        },
        {
          "internalType": "bool",
          "name": "access",
          "type": "bool"
        }
      ],
      "stateMutability": "view",
      "type": "function"
    },
    {
      "inputs": [
        {
          "internalType": "string",
          "name": "token",
          "type": "string"
        }
      ],
      "name": "addImageURL",
      "outputs": [],
      "stateMutability": "nonpayable",
      "type": "function"
    },
    {
      "inputs": [
        {
          "internalType": "address",
          "name": "user",
          "type": "address"
        }
      ],
      "name": "disallow",
      "outputs": [],
      "stateMutability": "nonpayable",
      "type": "function"
    },
    {
      "inputs": [
        {
          "internalType": "address",
          "name": "user",
          "type": "address"
        }
      ],
      "name": "giveAccess",
      "outputs": [],
      "stateMutability": "nonpayable",
      "type": "function"
    },
    {
      "inputs": [],
      "name": "owner",
      "outputs": [
        {
          "internalType": "address",
          "name": "",
          "type": "address"
        }
      ],
      "stateMutability": "view",
      "type": "function"
    },
    {
      "inputs": [
        {
          "internalType": "address",
          "name": "",
          "type": "address"
        },
        {
          "internalType": "address",
          "name": "",
          "type": "address"
        }
      ],
      "name": "ownership",
      "outputs": [
        {
          "internalType": "bool",
          "name": "",
          "type": "bool"
        }
      ],
      "stateMutability": "view",
      "type": "function"
    },
    {
      "inputs": [
        {
          "internalType": "address",
          "name": "user",
          "type": "address"
        }
      ],
      "name": "showAccessList",
      "outputs": [
        {
          "components": [
            {
              "internalType": "address",
              "name": "user",
              "type": "address"
            },
            {
              "internalType": "bool",
              "name": "access",
              "type": "bool"
            }
          ],
          "internalType": "struct Upload.Access[]",
          "name": "",
          "type": "tuple[]"
        }
      ],
      "stateMutability": "view",
      "type": "function"
    },
    {
      "inputs": [],
      "name": "showImages",
      "outputs": [
        {
          "internalType": "string[]",
          "name": "",
          "type": "string[]"
        }
      ],
      "stateMutability": "view",
      "type": "function"
    },
    {
      "inputs": [
        {
          "internalType": "address",
          "name": "",
          "type": "address"
        },
        {
          "internalType": "uint256",
          "name": "",
          "type": "uint256"
        }
      ],
      "name": "values",
      "outputs": [
        {
          "internalType": "string",
          "name": "",
          "type": "string"
        }
      ],
      "stateMutability": "view",
      "type": "function"
    }
  ],
  "bytecode": "0x6080604052336000806101000a81548173ffffffffffffffffffffffffffffffffffffffff021916908373ffffffffffffffffffffffffffffffffffffffff160217905550611584806100536000396000f3fe608060405234801561001057600080fd5b50600436106100935760003560e01c8063a9ed9cb811610066578063a9ed9cb814610147578063c07c96ef14610163578063ce37d9f21461017f578063cf12e870146101af578063d1d8ab5e146101cb57610093565b8063314e421e1461009857806370c2b419146100c85780638da5cb5b146100f9578063974fe59114610117575b600080fd5b6100b260048036038101906100ad9190610c18565b6101e9565b6040516100bf9190610ce8565b60405180910390f35b6100e260048036038101906100dd9190610c18565b6102a2565b6040516100f0929190610d34565b60405180910390f35b61010161030c565b60405161010e9190610d5d565b60405180910390f35b610131600480360381019061012c9190610d78565b610330565b60405161013e9190610db8565b60405180910390f35b610161600480360381019061015c9190610dd3565b61035f565b005b61017d60048036038101906101789190610f35565b610403565b005b61019960048036038101906101949190610dd3565b610478565b6040516101a6919061107a565b60405180910390f35b6101c960048036038101906101c49190610dd3565b61064c565b005b6101d3610880565b6040516101e091906111a8565b60405180910390f35b6001602052816000526040600020818154811061020557600080fd5b90600052602060002001600091509150508054610221906111f9565b80601f016020809104026020016040519081016040528092919081815260200182805461024d906111f9565b801561029a5780601f1061026f5761010080835404028352916020019161029a565b820191906000526020600020905b81548152906001019060200180831161027d57829003601f168201915b505050505081565b600260205281600052604060002081815481106102be57600080fd5b90600052602060002001600091509150508060000160009054906101000a900473ffffffffffffffffffffffffffffffffffffffff16908060000160149054906101000a900460ff16905082565b60008054906101000a900473ffffffffffffffffffffffffffffffffffffffff1681565b60036020528160005260406000206020528060005260406000206000915091509054906101000a900460ff1681565b6000600360003373ffffffffffffffffffffffffffffffffffffffff1673ffffffffffffffffffffffffffffffffffffffff16815260200190815260200160002060008373ffffffffffffffffffffffffffffffffffffffff1673ffffffffffffffffffffffffffffffffffffffff16815260200190815260200160002060006101000a81548160ff02191690831515021790555061040033826000610996565b50565b600160003373ffffffffffffffffffffffffffffffffffffffff1673ffffffffffffffffffffffffffffffffffffffff1681526020019081526020016000208190806001815401808255809150506001900390600052602060002001600090919091909150908161047491906113d6565b5050565b60608173ffffffffffffffffffffffffffffffffffffffff163373ffffffffffffffffffffffffffffffffffffffff16148061053a5750600360003373ffffffffffffffffffffffffffffffffffffffff1673ffffffffffffffffffffffffffffffffffffffff16815260200190815260200160002060008373ffffffffffffffffffffffffffffffffffffffff1673ffffffffffffffffffffffffffffffffffffffff16815260200190815260200160002060009054906101000a900460ff165b61054357600080fd5b600260008373ffffffffffffffffffffffffffffffffffffffff1673ffffffffffffffffffffffffffffffffffffffff168152602001908152602001600020805480602002602001604051908101604052809291908181526020016000905b82821015610641578382906000526020600020016040518060400160405290816000820160009054906101000a900473ffffffffffffffffffffffffffffffffffffffff1673ffffffffffffffffffffffffffffffffffffffff1673ffffffffffffffffffffffffffffffffffffffff1681526020016000820160149054906101000a900460ff161515151581525050815260200190600101906105a2565b505050509050919050565b600360003373ffffffffffffffffffffffffffffffffffffffff1673ffffffffffffffffffffffffffffffffffffffff16815260200190815260200160002060008273ffffffffffffffffffffffffffffffffffffffff1673ffffffffffffffffffffffffffffffffffffffff16815260200190815260200160002060009054906101000a900460ff16156106ec576106e733826001610996565b61087d565b600260003373ffffffffffffffffffffffffffffffffffffffff1673ffffffffffffffffffffffffffffffffffffffff16815260200190815260200160002060405180604001604052808373ffffffffffffffffffffffffffffffffffffffff168152602001600115158152509080600181540180825580915050600190039060005260206000200160009091909190915060008201518160000160006101000a81548173ffffffffffffffffffffffffffffffffffffffff021916908373ffffffffffffffffffffffffffffffffffffffff16021790555060208201518160000160146101000a81548160ff02191690831515021790555050506001600360003373ffffffffffffffffffffffffffffffffffffffff1673ffffffffffffffffffffffffffffffffffffffff16815260200190815260200160002060008373ffffffffffffffffffffffffffffffffffffffff1673ffffffffffffffffffffffffffffffffffffffff16815260200190815260200160002060006101000a81548160ff0219169083151502179055505b50565b6060600160003373ffffffffffffffffffffffffffffffffffffffff1673ffffffffffffffffffffffffffffffffffffffff168152602001908152602001600020805480602002602001604051908101604052809291908181526020016000905b8282101561098d578382906000526020600020018054610900906111f9565b80601f016020809104026020016040519081016040528092919081815260200182805461092c906111f9565b80156109795780601f1061094e57610100808354040283529160200191610979565b820191906000526020600020905b81548152906001019060200180831161095c57829003601f168201915b5050505050815260200190600101906108e1565b50505050905090565b6000600260008573ffffffffffffffffffffffffffffffffffffffff1673ffffffffffffffffffffffffffffffffffffffff16815260200190815260200160002080549050905060005b81811015610b69578373ffffffffffffffffffffffffffffffffffffffff16600260008060009054906101000a900473ffffffffffffffffffffffffffffffffffffffff1673ffffffffffffffffffffffffffffffffffffffff1673ffffffffffffffffffffffffffffffffffffffff1681526020019081526020016000208281548110610a7157610a706114a8565b5b9060005260206000200160000160009054906101000a900473ffffffffffffffffffffffffffffffffffffffff1673ffffffffffffffffffffffffffffffffffffffff1603610b565782600260008060009054906101000a900473ffffffffffffffffffffffffffffffffffffffff1673ffffffffffffffffffffffffffffffffffffffff1673ffffffffffffffffffffffffffffffffffffffff1681526020019081526020016000208281548110610b2d57610b2c6114a8565b5b9060005260206000200160000160146101000a81548160ff021916908315150217905550610b69565b8080610b6190611506565b9150506109e0565b5050505050565b6000604051905090565b600080fd5b600080fd5b600073ffffffffffffffffffffffffffffffffffffffff82169050919050565b6000610baf82610b84565b9050919050565b610bbf81610ba4565b8114610bca57600080fd5b50565b600081359050610bdc81610bb6565b92915050565b6000819050919050565b610bf581610be2565b8114610c0057600080fd5b50565b600081359050610c1281610bec565b92915050565b60008060408385031215610c2f57610c2e610b7a565b5b6000610c3d85828601610bcd565b9250506020610c4e85828601610c03565b9150509250929050565b600081519050919050565b600082825260208201905092915050565b60005b83811015610c92578082015181840152602081019050610c77565b60008484015250505050565b6000601f19601f8301169050919050565b6000610cba82610c58565b610cc48185610c63565b9350610cd4818560208601610c74565b610cdd81610c9e565b840191505092915050565b60006020820190508181036000830152610d028184610caf565b905092915050565b610d1381610ba4565b82525050565b60008115159050919050565b610d2e81610d19565b82525050565b6000604082019050610d496000830185610d0a565b610d566020830184610d25565b9392505050565b6000602082019050610d726000830184610d0a565b92915050565b60008060408385031215610d8f57610d8e610b7a565b5b6000610d9d85828601610bcd565b9250506020610dae85828601610bcd565b9150509250929050565b6000602082019050610dcd6000830184610d25565b92915050565b600060208284031215610de957610de8610b7a565b5b6000610df784828501610bcd565b91505092915050565b600080fd5b600080fd5b7f4e487b7100000000000000000000000000000000000000000000000000000000600052604160045260246000fd5b610e4282610c9e565b810181811067ffffffffffffffff82111715610e6157610e60610e0a565b5b80604052505050565b6000610e74610b70565b9050610e808282610e39565b919050565b600067ffffffffffffffff821115610ea057610e9f610e0a565b5b610ea982610c9e565b9050602081019050919050565b82818337600083830152505050565b6000610ed8610ed384610e85565b610e6a565b905082815260208101848484011115610ef457610ef3610e05565b5b610eff848285610eb6565b509392505050565b600082601f830112610f1c57610f1b610e00565b5b8135610f2c848260208601610ec5565b91505092915050565b600060208284031215610f4b57610f4a610b7a565b5b600082013567ffffffffffffffff811115610f6957610f68610b7f565b5b610f7584828501610f07565b91505092915050565b600081519050919050565b600082825260208201905092915050565b6000819050602082019050919050565b610fb381610ba4565b82525050565b610fc281610d19565b82525050565b604082016000820151610fde6000850182610faa565b506020820151610ff16020850182610fb9565b50505050565b60006110038383610fc8565b60408301905092915050565b6000602082019050919050565b600061102782610f7e565b6110318185610f89565b935061103c83610f9a565b8060005b8381101561106d5781516110548882610ff7565b975061105f8361100f565b925050600181019050611040565b5085935050505092915050565b60006020820190508181036000830152611094818461101c565b905092915050565b600081519050919050565b600082825260208201905092915050565b6000819050602082019050919050565b600082825260208201905092915050565b60006110e482610c58565b6110ee81856110c8565b93506110fe818560208601610c74565b61110781610c9e565b840191505092915050565b600061111e83836110d9565b905092915050565b6000602082019050919050565b600061113e8261109c565b61114881856110a7565b93508360208202850161115a856110b8565b8060005b8581101561119657848403895281516111778582611112565b945061118283611126565b925060208a0199505060018101905061115e565b50829750879550505050505092915050565b600060208201905081810360008301526111c28184611133565b905092915050565b7f4e487b7100000000000000000000000000000000000000000000000000000000600052602260045260246000fd5b6000600282049050600182168061121157607f821691505b602082108103611224576112236111ca565b5b50919050565b60008190508160005260206000209050919050565b60006020601f8301049050919050565b600082821b905092915050565b60006008830261128c7fffffffffffffffffffffffffffffffffffffffffffffffffffffffffffffffff8261124f565b611296868361124f565b95508019841693508086168417925050509392505050565b6000819050919050565b60006112d36112ce6112c984610be2565b6112ae565b610be2565b9050919050565b6000819050919050565b6112ed836112b8565b6113016112f9826112da565b84845461125c565b825550505050565b600090565b611316611309565b6113218184846112e4565b505050565b5b818110156113455761133a60008261130e565b600181019050611327565b5050565b601f82111561138a5761135b8161122a565b6113648461123f565b81016020851015611373578190505b61138761137f8561123f565b830182611326565b50505b505050565b600082821c905092915050565b60006113ad6000198460080261138f565b1980831691505092915050565b60006113c6838361139c565b9150826002028217905092915050565b6113df82610c58565b67ffffffffffffffff8111156113f8576113f7610e0a565b5b61140282546111f9565b61140d828285611349565b600060209050601f831160018114611440576000841561142e578287015190505b61143885826113ba565b8655506114a0565b601f19841661144e8661122a565b60005b8281101561147657848901518255600182019150602085019450602081019050611451565b86831015611493578489015161148f601f89168261139c565b8355505b6001600288020188555050505b505050505050565b7f4e487b7100000000000000000000000000000000000000000000000000000000600052603260045260246000fd5b7f4e487b7100000000000000000000000000000000000000000000000000000000600052601160045260246000fd5b600061151182610be2565b91507fffffffffffffffffffffffffffffffffffffffffffffffffffffffffffffffff8203611543576115426114d7565b5b60018201905091905056fea2646970667358221220bb63f621d58bdb14efe2289cdc89f83d66cbdc463f5a35ff058c98717d46a1f664736f6c63430008130033",
  "linkReferences": {},
  "deployedLinkReferences": {}
}